{
  "contractName": "Hashink",
  "abi": [
    {
      "anonymous": false,
      "inputs": [
        {
          "indexed": true,
          "internalType": "address",
          "name": "owner",
          "type": "address"
        },
        {
          "indexed": true,
          "internalType": "address",
          "name": "approved",
          "type": "address"
        },
        {
          "indexed": true,
          "internalType": "uint256",
          "name": "tokenId",
          "type": "uint256"
        }
      ],
      "name": "Approval",
      "type": "event"
    },
    {
      "anonymous": false,
      "inputs": [
        {
          "indexed": true,
          "internalType": "address",
          "name": "owner",
          "type": "address"
        },
        {
          "indexed": true,
          "internalType": "address",
          "name": "operator",
          "type": "address"
        },
        {
          "indexed": false,
          "internalType": "bool",
          "name": "approved",
          "type": "bool"
        }
      ],
      "name": "ApprovalForAll",
      "type": "event"
    },
    {
      "anonymous": false,
      "inputs": [
        {
          "indexed": false,
          "internalType": "uint256",
          "name": "_price",
          "type": "uint256"
        },
        {
          "indexed": false,
          "internalType": "address",
          "name": "_publicKey",
          "type": "address"
        },
        {
          "indexed": false,
          "internalType": "string",
          "name": "firstName",
          "type": "string"
        },
        {
          "indexed": false,
          "internalType": "string",
          "name": "lastName",
          "type": "string"
        },
        {
          "indexed": false,
          "internalType": "string",
          "name": "internetName",
          "type": "string"
        }
      ],
      "name": "CelebrityCreated",
      "type": "event"
    },
    {
      "anonymous": false,
      "inputs": [
        {
          "indexed": false,
          "internalType": "bytes32",
          "name": "id",
          "type": "bytes32"
        },
        {
          "indexed": false,
          "internalType": "string",
          "name": "nft_meta",
          "type": "string"
        }
      ],
      "name": "RequestSigned",
      "type": "event"
    },
    {
      "anonymous": false,
      "inputs": [
        {
          "indexed": true,
          "internalType": "address",
          "name": "from",
          "type": "address"
        },
        {
          "indexed": true,
          "internalType": "address",
          "name": "to",
          "type": "address"
        },
        {
          "indexed": true,
          "internalType": "uint256",
          "name": "tokenId",
          "type": "uint256"
        }
      ],
      "name": "Transfer",
      "type": "event"
    },
    {
      "inputs": [
        {
          "internalType": "address",
          "name": "",
          "type": "address"
        }
      ],
      "name": "Celeberity",
      "outputs": [
        {
          "internalType": "bool",
          "name": "regeister",
          "type": "bool"
        },
        {
          "internalType": "uint256",
          "name": "price",
          "type": "uint256"
        },
        {
          "internalType": "string",
          "name": "frist_name",
          "type": "string"
        },
        {
          "internalType": "string",
          "name": "last_name",
          "type": "string"
        },
        {
          "internalType": "string",
          "name": "internet_name",
          "type": "string"
        }
      ],
      "stateMutability": "view",
      "type": "function",
      "constant": true
    },
    {
      "inputs": [
        {
          "internalType": "bytes32",
          "name": "",
          "type": "bytes32"
        }
      ],
      "name": "Request",
      "outputs": [
        {
          "internalType": "address payable",
          "name": "to",
          "type": "address"
        },
        {
          "internalType": "address",
          "name": "from",
          "type": "address"
        },
        {
          "internalType": "uint256",
          "name": "price",
          "type": "uint256"
        }
      ],
      "stateMutability": "view",
      "type": "function",
      "constant": true
    },
    {
      "inputs": [
        {
          "internalType": "address",
          "name": "to",
          "type": "address"
        },
        {
          "internalType": "uint256",
          "name": "tokenId",
          "type": "uint256"
        }
      ],
      "name": "approve",
      "outputs": [],
      "stateMutability": "nonpayable",
      "type": "function"
    },
    {
      "inputs": [
        {
          "internalType": "address",
          "name": "owner",
          "type": "address"
        }
      ],
      "name": "balanceOf",
      "outputs": [
        {
          "internalType": "uint256",
          "name": "",
          "type": "uint256"
        }
      ],
      "stateMutability": "view",
      "type": "function",
      "constant": true
    },
    {
      "inputs": [
        {
          "internalType": "uint256",
          "name": "tokenId",
          "type": "uint256"
        }
      ],
      "name": "getApproved",
      "outputs": [
        {
          "internalType": "address",
          "name": "",
          "type": "address"
        }
      ],
      "stateMutability": "view",
      "type": "function",
      "constant": true
    },
    {
      "inputs": [
        {
          "internalType": "address",
          "name": "owner",
          "type": "address"
        },
        {
          "internalType": "address",
          "name": "operator",
          "type": "address"
        }
      ],
      "name": "isApprovedForAll",
      "outputs": [
        {
          "internalType": "bool",
          "name": "",
          "type": "bool"
        }
      ],
      "stateMutability": "view",
      "type": "function",
      "constant": true
    },
    {
      "inputs": [],
      "name": "name",
      "outputs": [
        {
          "internalType": "string",
          "name": "",
          "type": "string"
        }
      ],
      "stateMutability": "view",
      "type": "function",
      "constant": true
    },
    {
      "inputs": [
        {
          "internalType": "uint256",
          "name": "tokenId",
          "type": "uint256"
        }
      ],
      "name": "ownerOf",
      "outputs": [
        {
          "internalType": "address",
          "name": "",
          "type": "address"
        }
      ],
      "stateMutability": "view",
      "type": "function",
      "constant": true
    },
    {
      "inputs": [
        {
          "internalType": "address",
          "name": "from",
          "type": "address"
        },
        {
          "internalType": "address",
          "name": "to",
          "type": "address"
        },
        {
          "internalType": "uint256",
          "name": "tokenId",
          "type": "uint256"
        }
      ],
      "name": "safeTransferFrom",
      "outputs": [],
      "stateMutability": "nonpayable",
      "type": "function"
    },
    {
      "inputs": [
        {
          "internalType": "address",
          "name": "from",
          "type": "address"
        },
        {
          "internalType": "address",
          "name": "to",
          "type": "address"
        },
        {
          "internalType": "uint256",
          "name": "tokenId",
          "type": "uint256"
        },
        {
          "internalType": "bytes",
          "name": "_data",
          "type": "bytes"
        }
      ],
      "name": "safeTransferFrom",
      "outputs": [],
      "stateMutability": "nonpayable",
      "type": "function"
    },
    {
      "inputs": [
        {
          "internalType": "address",
          "name": "operator",
          "type": "address"
        },
        {
          "internalType": "bool",
          "name": "approved",
          "type": "bool"
        }
      ],
      "name": "setApprovalForAll",
      "outputs": [],
      "stateMutability": "nonpayable",
      "type": "function"
    },
    {
      "inputs": [
        {
          "internalType": "bytes4",
          "name": "interfaceId",
          "type": "bytes4"
        }
      ],
      "name": "supportsInterface",
      "outputs": [
        {
          "internalType": "bool",
          "name": "",
          "type": "bool"
        }
      ],
      "stateMutability": "view",
      "type": "function",
      "constant": true
    },
    {
      "inputs": [],
      "name": "symbol",
      "outputs": [
        {
          "internalType": "string",
          "name": "",
          "type": "string"
        }
      ],
      "stateMutability": "view",
      "type": "function",
      "constant": true
    },
    {
      "inputs": [
        {
          "internalType": "uint256",
          "name": "",
          "type": "uint256"
        }
      ],
      "name": "tokenURI",
      "outputs": [
        {
          "internalType": "string",
          "name": "",
          "type": "string"
        }
      ],
      "stateMutability": "view",
      "type": "function",
      "constant": true
    },
    {
      "inputs": [
        {
          "internalType": "address",
          "name": "from",
          "type": "address"
        },
        {
          "internalType": "address",
          "name": "to",
          "type": "address"
        },
        {
          "internalType": "uint256",
          "name": "tokenId",
          "type": "uint256"
        }
      ],
      "name": "transferFrom",
      "outputs": [],
      "stateMutability": "nonpayable",
      "type": "function"
    },
    {
      "inputs": [
        {
          "internalType": "address",
          "name": "to",
          "type": "address"
        },
        {
          "internalType": "uint256",
          "name": "tokenId",
          "type": "uint256"
        },
        {
          "internalType": "string",
          "name": "tokenURI",
          "type": "string"
        }
      ],
      "name": "mint",
      "outputs": [],
      "stateMutability": "nonpayable",
      "type": "function"
    },
    {
      "inputs": [
        {
          "internalType": "uint256",
          "name": "_price",
          "type": "uint256"
        },
        {
          "internalType": "address",
          "name": "_publicKey",
          "type": "address"
        },
        {
          "internalType": "string",
          "name": "firstName",
          "type": "string"
        },
        {
          "internalType": "string",
          "name": "lastName",
          "type": "string"
        },
        {
          "internalType": "string",
          "name": "internetName",
          "type": "string"
        }
      ],
      "name": "createCelebrity",
      "outputs": [],
      "stateMutability": "nonpayable",
      "type": "function"
    },
    {
      "inputs": [
        {
          "internalType": "address payable",
          "name": "_to",
          "type": "address"
        }
      ],
      "name": "CreateRequest",
      "outputs": [
        {
          "internalType": "bytes32",
          "name": "",
          "type": "bytes32"
        }
      ],
      "stateMutability": "payable",
      "type": "function",
      "payable": true
    },
    {
      "inputs": [
        {
          "internalType": "bytes32",
          "name": "_id",
          "type": "bytes32"
        },
        {
          "internalType": "string",
          "name": "nft_meta",
          "type": "string"
        }
      ],
      "name": "signRequest",
      "outputs": [],
      "stateMutability": "nonpayable",
      "type": "function"
    }
  ],
  "bytecode": "0x60806040523480156200001157600080fd5b506040518060400160405280600781526020017f48617368496e6b000000000000000000000000000000000000000000000000008152506040518060400160405280600281526020017f4849000000000000000000000000000000000000000000000000000000000000815250816000908051906020019062000096929190620000b8565b508060019080519060200190620000af929190620000b8565b505050620001cd565b828054620000c69062000168565b90600052602060002090601f016020900481019282620000ea576000855562000136565b82601f106200010557805160ff191683800117855562000136565b8280016001018555821562000136579182015b828111156200013557825182559160200191906001019062000118565b5b50905062000145919062000149565b5090565b5b80821115620001645760008160009055506001016200014a565b5090565b600060028204905060018216806200018157607f821691505b602082108114156200019857620001976200019e565b5b50919050565b7f4e487b7100000000000000000000000000000000000000000000000000000000600052602260045260246000fd5b6132c680620001dd6000396000f3fe608060405260043610610131576000357c0100000000000000000000000000000000000000000000000000000000900480636f2c84d5116100bd578063b88d4fde11610081578063b88d4fde146103f6578063c87b56dd1461041f578063d3fc98641461045c578063e985e9c514610485578063ffbe94f8146104c257610131565b80636f2c84d5146102fd57806370a082311461033c5780637bc9a4b61461037957806395d89b41146103a2578063a22cb465146103cd57610131565b80631db1cf4f116101045780631db1cf4f146102045780631e5c552b1461022d57806323b872dd1461026e57806342842e0e146102975780636352211e146102c057610131565b806301ffc9a71461013657806306fdde0314610173578063081812fc1461019e578063095ea7b3146101db575b600080fd5b34801561014257600080fd5b5061015d60048036038101906101589190612367565b6104f2565b60405161016a9190612b9e565b60405180910390f35b34801561017f57600080fd5b506101886105d4565b6040516101959190612c6c565b60405180910390f35b3480156101aa57600080fd5b506101c560048036038101906101c091906123b9565b610666565b6040516101d29190612b00565b60405180910390f35b3480156101e757600080fd5b5061020260048036038101906101fd9190612247565b6106eb565b005b34801561021057600080fd5b5061022b60048036038101906102269190612313565b610803565b005b34801561023957600080fd5b50610254600480360381019061024f91906120b3565b610a25565b604051610265959493929190612bb9565b60405180910390f35b34801561027a57600080fd5b5061029560048036038101906102909190612141565b610c00565b005b3480156102a357600080fd5b506102be60048036038101906102b99190612141565b610c60565b005b3480156102cc57600080fd5b506102e760048036038101906102e291906123b9565b610c80565b6040516102f49190612b00565b60405180910390f35b34801561030957600080fd5b50610324600480360381019061031f91906122ea565b610d32565b60405161033393929190612b1b565b60405180910390f35b34801561034857600080fd5b50610363600480360381019061035e91906120b3565b610d9c565b6040516103709190612e8e565b60405180910390f35b34801561038557600080fd5b506103a0600480360381019061039b91906123e2565b610e54565b005b3480156103ae57600080fd5b506103b76110eb565b6040516103c49190612c6c565b60405180910390f35b3480156103d957600080fd5b506103f460048036038101906103ef919061220b565b61117d565b005b34801561040257600080fd5b5061041d60048036038101906104189190612190565b6112fe565b005b34801561042b57600080fd5b50610446600480360381019061044191906123b9565b611360565b6040516104539190612c6c565b60405180910390f35b34801561046857600080fd5b50610483600480360381019061047e9190612283565b611400565b005b34801561049157600080fd5b506104ac60048036038101906104a79190612105565b611410565b6040516104b99190612b9e565b60405180910390f35b6104dc60048036038101906104d791906120dc565b6114a4565b6040516104e99190612c21565b60405180910390f35b60007f80ac58cd000000000000000000000000000000000000000000000000000000007bffffffffffffffffffffffffffffffffffffffffffffffffffffffff1916827bffffffffffffffffffffffffffffffffffffffffffffffffffffffff191614806105bd57507f5b5e139f000000000000000000000000000000000000000000000000000000007bffffffffffffffffffffffffffffffffffffffffffffffffffffffff1916827bffffffffffffffffffffffffffffffffffffffffffffffffffffffff1916145b806105cd57506105cc826115a2565b5b9050919050565b6060600080546105e390613136565b80601f016020809104026020016040519081016040528092919081815260200182805461060f90613136565b801561065c5780601f106106315761010080835404028352916020019161065c565b820191906000526020600020905b81548152906001019060200180831161063f57829003601f168201915b5050505050905090565b60006106718261160c565b6106b0576040517f08c379a00000000000000000000000000000000000000000000000000000000081526004016106a790612dee565b60405180910390fd5b6004600083815260200190815260200160002060009054906101000a900473ffffffffffffffffffffffffffffffffffffffff169050919050565b60006106f682610c80565b90508073ffffffffffffffffffffffffffffffffffffffff168373ffffffffffffffffffffffffffffffffffffffff161415610767576040517f08c379a000000000000000000000000000000000000000000000000000000000815260040161075e90612e2e565b60405180910390fd5b8073ffffffffffffffffffffffffffffffffffffffff16610786611678565b73ffffffffffffffffffffffffffffffffffffffff1614806107b557506107b4816107af611678565b611410565b5b6107f4576040517f08c379a00000000000000000000000000000000000000000000000000000000081526004016107eb90612d6e565b60405180910390fd5b6107fe8383611680565b505050565b3373ffffffffffffffffffffffffffffffffffffffff166007600084815260200190815260200160002060000160009054906101000a900473ffffffffffffffffffffffffffffffffffffffff1673ffffffffffffffffffffffffffffffffffffffff16146108a7576040517f08c379a000000000000000000000000000000000000000000000000000000000815260040161089e90612c8e565b60405180910390fd5b6007600083815260200190815260200160002060000160009054906101000a900473ffffffffffffffffffffffffffffffffffffffff1673ffffffffffffffffffffffffffffffffffffffff166108fc60076000858152602001908152602001600020600201549081150290604051600060405180830381858888f19350505050158015610939573d6000803e3d6000fd5b5061097c6007600084815260200190815260200160002060010160009054906101000a900473ffffffffffffffffffffffffffffffffffffffff16600083611400565b7f2d407448d2606abe6c2ca1a8790b333ca2b21951323ce5ebe28d40a866535ec582826040516109ad929190612c3c565b60405180910390a160076000838152602001908152602001600020600080820160006101000a81549073ffffffffffffffffffffffffffffffffffffffff02191690556001820160006101000a81549073ffffffffffffffffffffffffffffffffffffffff0219169055600282016000905550505050565b60086020528060005260406000206000915090508060000160009054906101000a900460ff1690806001015490806002018054610a6190613136565b80601f0160208091040260200160405190810160405280929190818152602001828054610a8d90613136565b8015610ada5780601f10610aaf57610100808354040283529160200191610ada565b820191906000526020600020905b815481529060010190602001808311610abd57829003601f168201915b505050505090806003018054610aef90613136565b80601f0160208091040260200160405190810160405280929190818152602001828054610b1b90613136565b8015610b685780601f10610b3d57610100808354040283529160200191610b68565b820191906000526020600020905b815481529060010190602001808311610b4b57829003601f168201915b505050505090806004018054610b7d90613136565b80601f0160208091040260200160405190810160405280929190818152602001828054610ba990613136565b8015610bf65780601f10610bcb57610100808354040283529160200191610bf6565b820191906000526020600020905b815481529060010190602001808311610bd957829003601f168201915b5050505050905085565b610c11610c0b611678565b82611739565b610c50576040517f08c379a0000000000000000000000000000000000000000000000000000000008152600401610c4790612e6e565b60405180910390fd5b610c5b838383611817565b505050565b610c7b838383604051806020016040528060008152506112fe565b505050565b6000806002600084815260200190815260200160002060009054906101000a900473ffffffffffffffffffffffffffffffffffffffff169050600073ffffffffffffffffffffffffffffffffffffffff168173ffffffffffffffffffffffffffffffffffffffff161415610d29576040517f08c379a0000000000000000000000000000000000000000000000000000000008152600401610d2090612dae565b60405180910390fd5b80915050919050565b60076020528060005260406000206000915090508060000160009054906101000a900473ffffffffffffffffffffffffffffffffffffffff16908060010160009054906101000a900473ffffffffffffffffffffffffffffffffffffffff16908060020154905083565b60008073ffffffffffffffffffffffffffffffffffffffff168273ffffffffffffffffffffffffffffffffffffffff161415610e0d576040517f08c379a0000000000000000000000000000000000000000000000000000000008152600401610e0490612d8e565b60405180910390fd5b600360008373ffffffffffffffffffffffffffffffffffffffff1673ffffffffffffffffffffffffffffffffffffffff168152602001908152602001600020549050919050565b60011515600860008673ffffffffffffffffffffffffffffffffffffffff1673ffffffffffffffffffffffffffffffffffffffff16815260200190815260200160002060000160009054906101000a900460ff1615151415610eeb576040517f08c379a0000000000000000000000000000000000000000000000000000000008152600401610ee290612d4e565b60405180910390fd5b3373ffffffffffffffffffffffffffffffffffffffff168473ffffffffffffffffffffffffffffffffffffffff1614610f59576040517f08c379a0000000000000000000000000000000000000000000000000000000008152600401610f5090612e4e565b60405180910390fd5b84600860008673ffffffffffffffffffffffffffffffffffffffff1673ffffffffffffffffffffffffffffffffffffffff1681526020019081526020016000206001018190555082600860008673ffffffffffffffffffffffffffffffffffffffff1673ffffffffffffffffffffffffffffffffffffffff1681526020019081526020016000206002019080519060200190610ff6929190611ead565b5081600860008673ffffffffffffffffffffffffffffffffffffffff1673ffffffffffffffffffffffffffffffffffffffff168152602001908152602001600020600301908051906020019061104d929190611ead565b5080600860008673ffffffffffffffffffffffffffffffffffffffff1673ffffffffffffffffffffffffffffffffffffffff16815260200190815260200160002060040190805190602001906110a4929190611ead565b507fc59a4db69b6b513a987ba59b144f9b51c8302a92927832fe2a9918c698c93e7d85858585856040516110dc959493929190612ea9565b60405180910390a15050505050565b6060600180546110fa90613136565b80601f016020809104026020016040519081016040528092919081815260200182805461112690613136565b80156111735780601f1061114857610100808354040283529160200191611173565b820191906000526020600020905b81548152906001019060200180831161115657829003601f168201915b5050505050905090565b611185611678565b73ffffffffffffffffffffffffffffffffffffffff168273ffffffffffffffffffffffffffffffffffffffff1614156111f3576040517f08c379a00000000000000000000000000000000000000000000000000000000081526004016111ea90612d0e565b60405180910390fd5b8060056000611200611678565b73ffffffffffffffffffffffffffffffffffffffff1673ffffffffffffffffffffffffffffffffffffffff16815260200190815260200160002060008473ffffffffffffffffffffffffffffffffffffffff1673ffffffffffffffffffffffffffffffffffffffff16815260200190815260200160002060006101000a81548160ff0219169083151502179055508173ffffffffffffffffffffffffffffffffffffffff166112ad611678565b73ffffffffffffffffffffffffffffffffffffffff167f17307eab39ab6107e8899845ad3d59bd9653f200f220920489ca2b5937696c31836040516112f29190612b9e565b60405180910390a35050565b61130f611309611678565b83611739565b61134e576040517f08c379a000000000000000000000000000000000000000000000000000000000815260040161134590612e6e565b60405180910390fd5b61135a84848484611a73565b50505050565b6006602052806000526040600020600091509050805461137f90613136565b80601f01602080910402602001604051908101604052809291908181526020018280546113ab90613136565b80156113f85780601f106113cd576101008083540402835291602001916113f8565b820191906000526020600020905b8154815290600101906020018083116113db57829003601f168201915b505050505081565b61140b838383611acf565b505050565b6000600560008473ffffffffffffffffffffffffffffffffffffffff1673ffffffffffffffffffffffffffffffffffffffff16815260200190815260200160002060008373ffffffffffffffffffffffffffffffffffffffff1673ffffffffffffffffffffffffffffffffffffffff16815260200190815260200160002060009054906101000a900460ff16905092915050565b6000808233346040516020016114bc93929190612b1b565b604051602081830303815290604052805190602001209050826007600083815260200190815260200160002060000160006101000a81548173ffffffffffffffffffffffffffffffffffffffff021916908373ffffffffffffffffffffffffffffffffffffffff160217905550336007600083815260200190815260200160002060010160006101000a81548173ffffffffffffffffffffffffffffffffffffffff021916908373ffffffffffffffffffffffffffffffffffffffff16021790555034600760008381526020019081526020016000206002018190555080915050919050565b60007f01ffc9a7000000000000000000000000000000000000000000000000000000007bffffffffffffffffffffffffffffffffffffffffffffffffffffffff1916827bffffffffffffffffffffffffffffffffffffffffffffffffffffffff1916149050919050565b60008073ffffffffffffffffffffffffffffffffffffffff166002600084815260200190815260200160002060009054906101000a900473ffffffffffffffffffffffffffffffffffffffff1673ffffffffffffffffffffffffffffffffffffffff1614159050919050565b600033905090565b816004600083815260200190815260200160002060006101000a81548173ffffffffffffffffffffffffffffffffffffffff021916908373ffffffffffffffffffffffffffffffffffffffff160217905550808273ffffffffffffffffffffffffffffffffffffffff166116f383610c80565b73ffffffffffffffffffffffffffffffffffffffff167f8c5be1e5ebec7d5bd14f71427d1e84f3dd0314c0f7b2291e5b200ac8c7c3b92560405160405180910390a45050565b60006117448261160c565b611783576040517f08c379a000000000000000000000000000000000000000000000000000000000815260040161177a90612d2e565b60405180910390fd5b600061178e83610c80565b90508073ffffffffffffffffffffffffffffffffffffffff168473ffffffffffffffffffffffffffffffffffffffff1614806117fd57508373ffffffffffffffffffffffffffffffffffffffff166117e584610666565b73ffffffffffffffffffffffffffffffffffffffff16145b8061180e575061180d8185611410565b5b91505092915050565b8273ffffffffffffffffffffffffffffffffffffffff1661183782610c80565b73ffffffffffffffffffffffffffffffffffffffff161461188d576040517f08c379a000000000000000000000000000000000000000000000000000000000815260040161188490612e0e565b60405180910390fd5b600073ffffffffffffffffffffffffffffffffffffffff168273ffffffffffffffffffffffffffffffffffffffff1614156118fd576040517f08c379a00000000000000000000000000000000000000000000000000000000081526004016118f490612cee565b60405180910390fd5b611908838383611cc6565b611913600082611680565b6001600360008573ffffffffffffffffffffffffffffffffffffffff1673ffffffffffffffffffffffffffffffffffffffff16815260200190815260200160002060008282546119639190613030565b925050819055506001600360008473ffffffffffffffffffffffffffffffffffffffff1673ffffffffffffffffffffffffffffffffffffffff16815260200190815260200160002060008282546119ba9190612fda565b92505081905550816002600083815260200190815260200160002060006101000a81548173ffffffffffffffffffffffffffffffffffffffff021916908373ffffffffffffffffffffffffffffffffffffffff160217905550808273ffffffffffffffffffffffffffffffffffffffff168473ffffffffffffffffffffffffffffffffffffffff167fddf252ad1be2c89b69c2b068fc378daa952ba7f163c4a11628f55a4df523b3ef60405160405180910390a4505050565b611a7e848484611817565b611a8a84848484611ccb565b611ac9576040517f08c379a0000000000000000000000000000000000000000000000000000000008152600401611ac090612cae565b60405180910390fd5b50505050565b600073ffffffffffffffffffffffffffffffffffffffff168373ffffffffffffffffffffffffffffffffffffffff161415611b3f576040517f08c379a0000000000000000000000000000000000000000000000000000000008152600401611b3690612dce565b60405180910390fd5b611b488261160c565b15611b88576040517f08c379a0000000000000000000000000000000000000000000000000000000008152600401611b7f90612cce565b60405180910390fd5b611b9460008484611cc6565b6001600360008573ffffffffffffffffffffffffffffffffffffffff1673ffffffffffffffffffffffffffffffffffffffff1681526020019081526020016000206000828254611be49190612fda565b92505081905550826002600084815260200190815260200160002060006101000a81548173ffffffffffffffffffffffffffffffffffffffff021916908373ffffffffffffffffffffffffffffffffffffffff16021790555080600660008481526020019081526020016000209080519060200190611c64929190611ead565b50818373ffffffffffffffffffffffffffffffffffffffff16600073ffffffffffffffffffffffffffffffffffffffff167fddf252ad1be2c89b69c2b068fc378daa952ba7f163c4a11628f55a4df523b3ef60405160405180910390a4505050565b505050565b6000611cec8473ffffffffffffffffffffffffffffffffffffffff16611e9a565b15611e8d578373ffffffffffffffffffffffffffffffffffffffff1663150b7a02611d15611678565b8786866040518563ffffffff167c0100000000000000000000000000000000000000000000000000000000028152600401611d539493929190612b52565b602060405180830381600087803b158015611d6d57600080fd5b505af1925050508015611d9e57506040513d601f19601f82011682018060405250810190611d9b9190612390565b60015b611e21573d8060008114611dce576040519150601f19603f3d011682016040523d82523d6000602084013e611dd3565b606091505b50600081511415611e19576040517f08c379a0000000000000000000000000000000000000000000000000000000008152600401611e1090612cae565b60405180910390fd5b805181602001fd5b63150b7a027c0100000000000000000000000000000000000000000000000000000000027bffffffffffffffffffffffffffffffffffffffffffffffffffffffff1916817bffffffffffffffffffffffffffffffffffffffffffffffffffffffff191614915050611e92565b600190505b949350505050565b600080823b905060008111915050919050565b828054611eb990613136565b90600052602060002090601f016020900481019282611edb5760008555611f22565b82601f10611ef457805160ff1916838001178555611f22565b82800160010185558215611f22579182015b82811115611f21578251825591602001919060010190611f06565b5b509050611f2f9190611f33565b5090565b5b80821115611f4c576000816000905550600101611f34565b5090565b6000611f63611f5e84612f42565b612f11565b905082815260208101848484011115611f7b57600080fd5b611f868482856130f4565b509392505050565b6000611fa1611f9c84612f72565b612f11565b905082815260208101848484011115611fb957600080fd5b611fc48482856130f4565b509392505050565b600081359050611fdb81613206565b92915050565b600081359050611ff08161321d565b92915050565b60008135905061200581613234565b92915050565b60008135905061201a8161324b565b92915050565b60008135905061202f81613262565b92915050565b60008151905061204481613262565b92915050565b600082601f83011261205b57600080fd5b813561206b848260208601611f50565b91505092915050565b600082601f83011261208557600080fd5b8135612095848260208601611f8e565b91505092915050565b6000813590506120ad81613279565b92915050565b6000602082840312156120c557600080fd5b60006120d384828501611fcc565b91505092915050565b6000602082840312156120ee57600080fd5b60006120fc84828501611fe1565b91505092915050565b6000806040838503121561211857600080fd5b600061212685828601611fcc565b925050602061213785828601611fcc565b9150509250929050565b60008060006060848603121561215657600080fd5b600061216486828701611fcc565b935050602061217586828701611fcc565b92505060406121868682870161209e565b9150509250925092565b600080600080608085870312156121a657600080fd5b60006121b487828801611fcc565b94505060206121c587828801611fcc565b93505060406121d68782880161209e565b925050606085013567ffffffffffffffff8111156121f357600080fd5b6121ff8782880161204a565b91505092959194509250565b6000806040838503121561221e57600080fd5b600061222c85828601611fcc565b925050602061223d85828601611ff6565b9150509250929050565b6000806040838503121561225a57600080fd5b600061226885828601611fcc565b92505060206122798582860161209e565b9150509250929050565b60008060006060848603121561229857600080fd5b60006122a686828701611fcc565b93505060206122b78682870161209e565b925050604084013567ffffffffffffffff8111156122d457600080fd5b6122e086828701612074565b9150509250925092565b6000602082840312156122fc57600080fd5b600061230a8482850161200b565b91505092915050565b6000806040838503121561232657600080fd5b60006123348582860161200b565b925050602083013567ffffffffffffffff81111561235157600080fd5b61235d85828601612074565b9150509250929050565b60006020828403121561237957600080fd5b600061238784828501612020565b91505092915050565b6000602082840312156123a257600080fd5b60006123b084828501612035565b91505092915050565b6000602082840312156123cb57600080fd5b60006123d98482850161209e565b91505092915050565b600080600080600060a086880312156123fa57600080fd5b60006124088882890161209e565b955050602061241988828901611fcc565b945050604086013567ffffffffffffffff81111561243657600080fd5b61244288828901612074565b935050606086013567ffffffffffffffff81111561245f57600080fd5b61246b88828901612074565b925050608086013567ffffffffffffffff81111561248857600080fd5b61249488828901612074565b9150509295509295909350565b6124aa81613076565b82525050565b6124b981613064565b82525050565b6124c881613088565b82525050565b6124d781613094565b82525050565b60006124e882612fa2565b6124f28185612fb8565b9350612502818560208601613103565b61250b816131f5565b840191505092915050565b600061252182612fad565b61252b8185612fc9565b935061253b818560208601613103565b612544816131f5565b840191505092915050565b600061255c602583612fc9565b91507f5369676e6572206973206e6f742077686f20726571756573742077617320736560008301527f6e7420746f0000000000000000000000000000000000000000000000000000006020830152604082019050919050565b60006125c2603283612fc9565b91507f4552433732313a207472616e7366657220746f206e6f6e20455243373231526560008301527f63656976657220696d706c656d656e74657200000000000000000000000000006020830152604082019050919050565b6000612628601c83612fc9565b91507f4552433732313a20746f6b656e20616c7265616479206d696e746564000000006000830152602082019050919050565b6000612668602483612fc9565b91507f4552433732313a207472616e7366657220746f20746865207a65726f2061646460008301527f72657373000000000000000000000000000000000000000000000000000000006020830152604082019050919050565b60006126ce601983612fc9565b91507f4552433732313a20617070726f766520746f2063616c6c6572000000000000006000830152602082019050919050565b600061270e602c83612fc9565b91507f4552433732313a206f70657261746f7220717565727920666f72206e6f6e657860008301527f697374656e7420746f6b656e00000000000000000000000000000000000000006020830152604082019050919050565b6000612774601a83612fc9565b91507f43656c6562657269747920616c726561647920637265617465640000000000006000830152602082019050919050565b60006127b4603883612fc9565b91507f4552433732313a20617070726f76652063616c6c6572206973206e6f74206f7760008301527f6e6572206e6f7220617070726f76656420666f7220616c6c00000000000000006020830152604082019050919050565b600061281a602a83612fc9565b91507f4552433732313a2062616c616e636520717565727920666f7220746865207a6560008301527f726f2061646472657373000000000000000000000000000000000000000000006020830152604082019050919050565b6000612880602983612fc9565b91507f4552433732313a206f776e657220717565727920666f72206e6f6e657869737460008301527f656e7420746f6b656e00000000000000000000000000000000000000000000006020830152604082019050919050565b60006128e6602083612fc9565b91507f4552433732313a206d696e7420746f20746865207a65726f20616464726573736000830152602082019050919050565b6000612926602c83612fc9565b91507f4552433732313a20617070726f76656420717565727920666f72206e6f6e657860008301527f697374656e7420746f6b656e00000000000000000000000000000000000000006020830152604082019050919050565b600061298c602983612fc9565b91507f4552433732313a207472616e73666572206f6620746f6b656e2074686174206960008301527f73206e6f74206f776e00000000000000000000000000000000000000000000006020830152604082019050919050565b60006129f2602183612fc9565b91507f4552433732313a20617070726f76616c20746f2063757272656e74206f776e6560008301527f72000000000000000000000000000000000000000000000000000000000000006020830152604082019050919050565b6000612a58601b83612fc9565b91507f53656e646572206973206e6f74206f77656e6572206f66206b657900000000006000830152602082019050919050565b6000612a98603183612fc9565b91507f4552433732313a207472616e736665722063616c6c6572206973206e6f74206f60008301527f776e6572206e6f7220617070726f7665640000000000000000000000000000006020830152604082019050919050565b612afa816130ea565b82525050565b6000602082019050612b1560008301846124b0565b92915050565b6000606082019050612b3060008301866124a1565b612b3d60208301856124b0565b612b4a6040830184612af1565b949350505050565b6000608082019050612b6760008301876124b0565b612b7460208301866124b0565b612b816040830185612af1565b8181036060830152612b9381846124dd565b905095945050505050565b6000602082019050612bb360008301846124bf565b92915050565b600060a082019050612bce60008301886124bf565b612bdb6020830187612af1565b8181036040830152612bed8186612516565b90508181036060830152612c018185612516565b90508181036080830152612c158184612516565b90509695505050505050565b6000602082019050612c3660008301846124ce565b92915050565b6000604082019050612c5160008301856124ce565b8181036020830152612c638184612516565b90509392505050565b60006020820190508181036000830152612c868184612516565b905092915050565b60006020820190508181036000830152612ca78161254f565b9050919050565b60006020820190508181036000830152612cc7816125b5565b9050919050565b60006020820190508181036000830152612ce78161261b565b9050919050565b60006020820190508181036000830152612d078161265b565b9050919050565b60006020820190508181036000830152612d27816126c1565b9050919050565b60006020820190508181036000830152612d4781612701565b9050919050565b60006020820190508181036000830152612d6781612767565b9050919050565b60006020820190508181036000830152612d87816127a7565b9050919050565b60006020820190508181036000830152612da78161280d565b9050919050565b60006020820190508181036000830152612dc781612873565b9050919050565b60006020820190508181036000830152612de7816128d9565b9050919050565b60006020820190508181036000830152612e0781612919565b9050919050565b60006020820190508181036000830152612e278161297f565b9050919050565b60006020820190508181036000830152612e47816129e5565b9050919050565b60006020820190508181036000830152612e6781612a4b565b9050919050565b60006020820190508181036000830152612e8781612a8b565b9050919050565b6000602082019050612ea36000830184612af1565b92915050565b600060a082019050612ebe6000830188612af1565b612ecb60208301876124b0565b8181036040830152612edd8186612516565b90508181036060830152612ef18185612516565b90508181036080830152612f058184612516565b90509695505050505050565b6000604051905081810181811067ffffffffffffffff82111715612f3857612f376131c6565b5b8060405250919050565b600067ffffffffffffffff821115612f5d57612f5c6131c6565b5b601f19601f8301169050602081019050919050565b600067ffffffffffffffff821115612f8d57612f8c6131c6565b5b601f19601f8301169050602081019050919050565b600081519050919050565b600081519050919050565b600082825260208201905092915050565b600082825260208201905092915050565b6000612fe5826130ea565b9150612ff0836130ea565b9250827fffffffffffffffffffffffffffffffffffffffffffffffffffffffffffffffff0382111561302557613024613168565b5b828201905092915050565b600061303b826130ea565b9150613046836130ea565b92508282101561305957613058613168565b5b828203905092915050565b600061306f826130ca565b9050919050565b6000613081826130ca565b9050919050565b60008115159050919050565b6000819050919050565b60007fffffffff0000000000000000000000000000000000000000000000000000000082169050919050565b600073ffffffffffffffffffffffffffffffffffffffff82169050919050565b6000819050919050565b82818337600083830152505050565b60005b83811015613121578082015181840152602081019050613106565b83811115613130576000848401525b50505050565b6000600282049050600182168061314e57607f821691505b6020821081141561316257613161613197565b5b50919050565b7f4e487b7100000000000000000000000000000000000000000000000000000000600052601160045260246000fd5b7f4e487b7100000000000000000000000000000000000000000000000000000000600052602260045260246000fd5b7f4e487b7100000000000000000000000000000000000000000000000000000000600052604160045260246000fd5b6000601f19601f8301169050919050565b61320f81613064565b811461321a57600080fd5b50565b61322681613076565b811461323157600080fd5b50565b61323d81613088565b811461324857600080fd5b50565b61325481613094565b811461325f57600080fd5b50565b61326b8161309e565b811461327657600080fd5b50565b613282816130ea565b811461328d57600080fd5b5056fea2646970667358221220f218922af04adef701cd8d0889f3bf501328198813a0344b967bc7a19e2ec5f664736f6c63430008000033",
  "immutableReferences": {},
  "source": "// SPDX-License-Identifier: MIT\npragma solidity >=0.4.22 <0.9.0;\n\nimport \"@openzeppelin/contracts/token/ERC721/ERC721.sol\";\n\ncontract Hashink is ERC721(\"HashInk\", \"HI\") {\n\n    struct requests {\n        address payable to;\n        address from;\n        uint256 price;\n    }\n\n    struct celeberity {\n        bool regeister;\n        uint256 price;\n        string frist_name;\n        string last_name;\n        string internet_name;\n    }\n\n    mapping (bytes32 => requests) public Request;\n    mapping (address => celeberity ) public Celeberity;\n\n    event CelebrityCreated(uint256 _price, address _publicKey, string firstName, string lastName, string internetName);\n    event RequestSigned(bytes32 id, string nft_meta);\n\n    //have to modify this to update the tokenURI correctly.\n    function mint(address to, uint256 tokenId, string memory tokenURI) public {\n        _mint(to, tokenId, tokenURI);\n    }\n\n    //Can change this to make this an admin only function\n    function createCelebrity(uint256 _price, address _publicKey, string memory firstName, string memory lastName, string memory internetName ) public  {\n        require(Celeberity[_publicKey].regeister != true, \"Celeberity already created\");\n        require(_publicKey == msg.sender, \"Sender is not owener of key\");\n\n        Celeberity[_publicKey].price = _price;\n        Celeberity[_publicKey].frist_name = firstName;\n        Celeberity[_publicKey].last_name = lastName;\n        Celeberity[_publicKey].internet_name = internetName;\n \n        emit CelebrityCreated(_price, _publicKey, firstName, lastName, internetName); \n    }\n\n    //Allows user to request a signature rom the celeb.\n    //Create function that returns the request ID.\n    function CreateRequest(address payable _to) public payable returns (bytes32) {\n        bytes32 id;\n        id = keccak256(abi.encode(_to, msg.sender, msg.value));\n        \n        Request[id].to = _to;\n        Request[id].from = msg.sender;\n        Request[id].price = msg.value;\n\n        return (id);\n        //add an event to post that the request was created.\n        // emit\n    }\n\n\n    //Has to send our cut to us as well.\n    function signRequest(bytes32 _id, string memory nft_meta) public {\n        require(Request[_id].to == msg.sender, \"Signer is not who request was sent to\");\n\n        //Transfer ETH to signer\n        Request[_id].to.transfer(Request[_id].price);\n        \n        //Mint the new NFT to the address of person who requested it.\n        mint(Request[_id].from, 0, nft_meta);\n        \n        emit RequestSigned(_id, nft_meta);\n        delete Request[_id];\n    }\n\n}",
  "sourcePath": "/Users/klongrich/myfiles/hashink/new_contracts/contracts/Hashink.sol",
  "compiler": {
    "name": "solc",
    "version": "0.8.0+commit.c7dfd78e.Linux.g++"
  },
  "schemaVersion": "3.4.1",
  "updatedAt": "2021-06-05T23:11:01.353Z",
  "networkType": "ethereum",
  "devdoc": {
    "kind": "dev",
    "methods": {
      "approve(address,uint256)": {
        "details": "See {IERC721-approve}."
      },
      "balanceOf(address)": {
        "details": "See {IERC721-balanceOf}."
      },
      "getApproved(uint256)": {
        "details": "See {IERC721-getApproved}."
      },
      "isApprovedForAll(address,address)": {
        "details": "See {IERC721-isApprovedForAll}."
      },
      "name()": {
        "details": "See {IERC721Metadata-name}."
      },
      "ownerOf(uint256)": {
        "details": "See {IERC721-ownerOf}."
      },
      "safeTransferFrom(address,address,uint256)": {
        "details": "See {IERC721-safeTransferFrom}."
      },
      "safeTransferFrom(address,address,uint256,bytes)": {
        "details": "See {IERC721-safeTransferFrom}."
      },
      "setApprovalForAll(address,bool)": {
        "details": "See {IERC721-setApprovalForAll}."
      },
      "supportsInterface(bytes4)": {
        "details": "See {IERC165-supportsInterface}."
      },
      "symbol()": {
        "details": "See {IERC721Metadata-symbol}."
      },
      "transferFrom(address,address,uint256)": {
        "details": "See {IERC721-transferFrom}."
      }
    },
    "version": 1
  },
  "userdoc": {
    "kind": "user",
    "methods": {},
    "version": 1
  }
}